:400000000080002011000000B9110100B911010080B500AF47F2BC63C4F2000344F2FA62C4F2000212681A6011F0CAF810B5054C237833B9044810B10448AFF30080012149
:40004000217010BDE88AFF1F00000000B899020008B5064B1BB106480649AFF300800648016811B1054A02B1904708BD00000000B8990200EC8AFF1F0881FF1F0000000001
:4000800080B483B000AF02460B46FA71BB71BB79072B10D8FB79032B0DD8F979BA7949F6C813C0F202039A5C4BF21863C1F6FF735B1883F8532007F10C07BD4680BC704776
:4000C00080B483B000AF02460B46FA71BB71BB79032B10D8FB79032B0DD8F979BA7949F6D013C0F202039A5C4BF21863C1F6FF735B1883F8572007F10C07BD4680BC70472E
:4001000090B58DB002AF4AF67533C1F6FF734FF000021A704AF67633C1F6FF734FF000021A704AF67533C1F6FF734FF000021A7000F0BFBD4AF67533C1F6FF731B781A4687
:400140004AF66C33C1F6FF739B5C002B40F05B824AF67533C1F6FF731B781A4648F61833C1F6FF7353F822104AF67533C1F6FF731B784BF21862C1F6FF724FEAC303D318A8
:40018000D3F84831994240F33E824AF67533C1F6FF731B781A464AF66C33C1F6FF734FF00101995448F66053C1F6FF731B78042B00F05D8100F0D2FD4AF67533C1F6FF7379
:4001C0001B781A4649F63833C1F6FF7353F822303B6249F63833C1F6FF731B69FB6149F62073C1F6FF731B884FEA93039BB203F1FF3348F21F52C5F2EB1282FB03124FEA42
:4002000022114FEAE3728A1A4FF0320101FB02F29A1A4AF67533C1F6FF731B78184649F63831C1F6FF7113464FEA83039B181B1851F82330BB6149F62073C1F6FF731B881E
:400240004FEA93039BB203F1FF3348F21F52C5F2EB1282FB03124FEA22114FEAE3728A1A4FF0320101FB02F29A1A49F63831C1F6FF7113464FEA83039B184FEA8303CB185B
:4002800003F110031B687B614AF67533C1F6FF731B781A464BF21863C1F6FF7302F1460253F822303A6AD31A18461DF029FA04464AF67533C1F6FF731B781A464BF21863F6
:4002C000C1F6FF7302F1460253F822204AF67533C1F6FF731B7819464BF21863C1F6FF7301F1420153F82130D31A18461DF008FA0346204619461DF00BFB03463B614AF6B8
:400300007533C1F6FF731B781A464BF21863C1F6FF7302F1460253F82230BA69D31A18461DF0EEF904464AF67533C1F6FF731B781A464BF21863C1F6FF7302F1460253F829
:4003400022204AF67533C1F6FF731B7819464BF21863C1F6FF7301F1420153F82130D31A18461DF0CDF90346204619461DF0D0FA0346FB603869F9681DF00CF90346BB6067
:40038000F8691DF0BDF9044678691DF0B9F90346204619461DF0FEF8034623F000437B60B86879681DF0B4FA03467B624AF64833C1F6FF731B78012B0FD14AF67533C1F6A0
:4003C000FF731B784BF21862C1F6FF7203F14A034FEA8303D3187A6A5A604AF67533C1F6FF731B784BF21862C1F6FF7203F14A034FEA8303D3185B68786A19461DF088FA8F
:4004000003467B627B6A23F0004318464FF00001C4F220111DF0C8F903467B62786A4FF07E511DF07DFB0346002B0FD0786A4FF00001C4F2FC211DF055FB0346002B05D07F
:40044000786A1DF077FB0346FB7010E0786A4FF00001C4F2FC211DF059FB0346002B03D04FF07F03FB7002E04FF00103FB7048F66053C1F6FF731B78002B24D14AF6753369
:40048000C1F6FF731B781C46786A1CF0F9FC02460B46CDE900234AF22800C1F6FF7049F6D411C0F2020122461EF0C8F80346DAB24AF24413C1F6FF731A704AF22800C1F6FA
:4004C000FF7000F005FC4AF67533C1F6FF731B781A464AF66C33C1F6FF734FF0010199544BF21863C1F6FF7393F828314FEA0313DBB283F06F036FEA0303DBB2DAB248F22A
:400500003C13C1F6FF731A704BF21863C1F6FF739B784FEA8303DAB24AF67533C1F6FF731B78D318DBB203F07F03DAB248F23C13C1F6FF735A7048F23C13C1F6FF734FF0F0
:400540007F029A704BF21863C1F6FF7393F86431002B27D048F23C13C1F6FF731B78DAB24BF21863C1F6FF739B784FEA8303D9B24AF67533C1F6FF731B78CB18DBB2DBB21D
:4005800003F00F03DBB21343DBB2DAB248F23C13C1F6FF731A7048F23C13C1F6FF734FF03C025A704BF21863C1F6FF739B784FEA8303DAB24AF67533C1F6FF731B78D31837
:4005C000DBB2DBB203F07F03DAB24BF21863C1F6FF7393F828316FEA03034FEAC313DBB283F07F036FEA0303DBB21343DBB2DAB24AF67633C1F6FF731A704AF67633C1F694
:40060000FF731B785FE34AF67533C1F6FF731B781A464AF66C33C1F6FF739B5C012B40F03B834AF67533C1F6FF731B781A4648F61833C1F6FF7353F822104AF67533C1F684
:40064000FF731B784BF21862C1F6FF7203F128034FEAC303D3185B68994280F21D834AF67533C1F6FF731B781A464AF66C33C1F6FF734FF00001995448F66053C1F6FF738A
:400680001B78042B00F0418217F0C0FD49F63830C1F6FF704FF000014FF47A721DF0DCFE48F68553C1F6FF731B78002B70D14AF64433C1F6FF731A8849F62073C1F6FF7323
:4006C0001A8049F25070C1F6FF704FF000014FF47A721DF0C1FE4AF64633C1F6FF734FF000021A8049F62073C1F6FF731B8803F003039BB2002B29D049F62073C1F6FF7344
:400700001B884FEA93039BB21A4613464FEA83039B184FEA830349F26832C1F6FF729B1849F25070C1F6FF7019464FF014021DF0E5FD49F62073C1F6FF731B8803F0030305
:400740009AB24AF64633C1F6FF731A8048F68553C1F6FF734FF001021A7049F62073C1F6FF731B884FEA93039BB21A4613464FEA83039B184FEA830349F63830C1F6FF7035
:4007800049F26831C1F6FF711A461DF0B7FD76E048F68553C1F6FF731B78012B6FD14AF64633C1F6FF731A8849F62073C1F6FF731A8049F26830C1F6FF704FF000014FF4F4
:4007C0007A721DF049FE4AF64433C1F6FF734FF000021A8049F62073C1F6FF731B8803F003039BB2002B29D049F62073C1F6FF731B884FEA93039BB21A4613464FEA8303C4
:400800009B184FEA830349F25072C1F6FF729B1849F26830C1F6FF7019464FF014021DF06DFD49F62073C1F6FF731B8803F003039AB24AF64433C1F6FF731A8048F68553D7
:40084000C1F6FF734FF000021A7049F62073C1F6FF731B884FEA93039BB21A4613464FEA83039B184FEA830349F63830C1F6FF7049F25071C1F6FF711A461DF03FFD17F040
:40088000B9FC4AF67533C1F6FF731B781A4649F63833C1F6FF7353F822303B6249F63833C1F6FF731B69FB6149F62073C1F6FF731B884FEA93039BB203F1FF3348F21F5234
:4008C000C5F2EB1282FB03124FEA22114FEAE3728A1A4FF0320101FB02F29A1A4AF67533C1F6FF731B78184649F63831C1F6FF7113464FEA83039B181B1851F82330BB6177
:4009000049F62073C1F6FF731B884FEA93039BB203F1FF3348F21F52C5F2EB1282FB03124FEA22114FEAE3728A1A4FF0320101FB02F29A1A49F63831C1F6FF7113464FEAD1
:4009400083039B184FEA8303CB1803F110031B687B614AF67533C1F6FF731B781A464BF21863C1F6FF7302F1460253F822303A6AD31A18461CF0C4FE04464AF67533C1F6D3
:40098000FF731B781A464BF21863C1F6FF7302F1460253F822204AF67533C1F6FF731B7819464BF21863C1F6FF7301F1420153F82130D31A18461CF0A3FE0346204619466E
:4009C0001CF0A6FF03463B614AF67533C1F6FF731B781A464BF21863C1F6FF7302F1460253F82230BA69D31A18461CF089FE04464AF67533C1F6FF731B781A464BF218639D
:400A0000C1F6FF7302F1460253F822204AF67533C1F6FF731B7819464BF21863C1F6FF7301F1420153F82130D31A18461CF068FE0346204619461CF06BFF0346FB6038698A
:400A4000F9681CF0A7FD0346BB60F8691CF058FE044678691CF054FE0346204619461CF099FD034623F000437B60B86879681CF04FFF03467B624AF67533C1F6FF731B7866
:400A80004BF21862C1F6FF7203F14A034FEA8303D3185B68786A19461CF03AFF03467B627B6A23F0004318464FF00001C4F220111CF07AFE03467B62786A4FF07E511DF096
:400AC0002FF80346002B0FD0786A4FF00001C4F2FC211DF007F80346002B05D0786A1DF029F80346FB7010E0786A4FF00001C4F2FC211DF00BF80346002B03D04FF07F0371
:400B0000FB7002E04FF00103FB7048F66053C1F6FF731B78002B24D14AF67533C1F6FF731B781C46786A1CF0ABF902460B46CDE900234AF22800C1F6FF7049F6EC11C0F26B
:400B4000020122461DF07AFD0346DAB24AF24413C1F6FF731A704AF22800C1F6FF7000F0B7F84AF67533C1F6FF731B781A464AF66C33C1F6FF734FF0000199544BF2186351
:400B8000C1F6FF7393F828314FEA0313DBB283F07F036FEA0303DBB2DAB248F23C13C1F6FF731A704BF21863C1F6FF739B784FEA8303DAB24AF67533C1F6FF731B78D318D5
:400BC000DBB203F07F03DAB248F23C13C1F6FF735A7048F23C13C1F6FF734FF07F029A704BF21863C1F6FF7393F86431002B24D048F23C13C1F6FF731B78DAB24BF21863C6
:400C0000C1F6FF739B784FEA8303D9B24AF67533C1F6FF731B78CB18DBB2DBB21343DBB2DAB248F23C13C1F6FF731A7048F23C13C1F6FF734FF03C025A704BF21863C1F67A
:400C4000FF739B784FEA8303DAB24AF67533C1F6FF731B78D318DBB2DBB203F07F03DAB24BF21863C1F6FF7393F828314FEAC313DBB283F07F036FEA0303DBB21343DBB2D5
:400C8000DAB24AF67633C1F6FF731A704AF67633C1F6FF731B7816E04AF67533C1F6FF731B7803F10103DAB24AF67533C1F6FF731A704AF67533C1F6FF731B78032B7FF667
:400CC00039AA4FF00003184607F12C07BD4690BD80B586B002AF78604FF00003FB8148F66053C1F6FF731B78002B06D048F66053C1F6FF731B78042B0DD100BF13F05CFFBF
:400D00000346002BFAD0786813F06EFE78681DF001FF0346FB814AF68133C1F6FF731B78012B15D178681DF0F5FE03469AB248F27413C1F6FF731B689BB200934FF00000B1
:400D4000796848F27013C1F6FF730BF041FFB860FB89184607F11007BD4680BD80B500AF17F054FA49F63830C1F6FF704FF000014FF47A721DF070FB48F68553C1F6FF73FC
:400D80001B78002B70D149F25070C1F6FF704FF000014FF47A721DF05FFB4AF64633C1F6FF734FF000021A8048F68553C1F6FF734FF001021A704AF64433C1F6FF731A88F3
:400DC00049F62073C1F6FF731A8049F62073C1F6FF731B8803F003039BB2002B29D049F62073C1F6FF731B884FEA93039BB21A4613464FEA83039B184FEA830349F26832DD
:400E0000C1F6FF729B1849F25070C1F6FF7019464FF014021DF072FA49F62073C1F6FF731B8803F003039AB24AF64633C1F6FF731A8049F62073C1F6FF731B884FEA9303BD
:400E40009BB21A4613464FEA83039B184FEA830349F63830C1F6FF7049F26831C1F6FF711A461DF04BFA76E048F68553C1F6FF731B78012B6FD149F26830C1F6FF704FF0F5
:400E800000014FF47A721DF0E7FA4AF64433C1F6FF734FF000021A8048F68553C1F6FF734FF000021A704AF64633C1F6FF731A8849F62073C1F6FF731A8049F62073C1F6AD
:400EC000FF731B8803F003039BB2002B29D049F62073C1F6FF731B884FEA93039BB21A4613464FEA83039B184FEA830349F25072C1F6FF729B1849F26830C1F6FF7019469F
:400F00004FF014021DF0FAF949F62073C1F6FF731B8803F003039AB24AF64433C1F6FF731A8049F62073C1F6FF731B884FEA93039BB21A4613464FEA83039B184FEA83035B
:400F400049F63830C1F6FF7049F25071C1F6FF711A461DF0D3F917F04DF980BD80B500AF17F054F948F68553C1F6FF731B78002B70D148F68070C1F6FF704FF000014FF471
:400F8000FA721DF069FA4AF64633C1F6FF734FF000021A8048F68553C1F6FF734FF001021A704AF64433C1F6FF731A8849F62073C1F6FF731A8049F62073C1F6FF731B88D8
:400FC00003F003039BB2002B29D049F62073C1F6FF731B884FEA93039BB21A4613464FEA83039B184FEA430348F68C52C1F6FF729B1848F68070C1F6FF7019464FF00A022E
:401000001DF07CF949F62073C1F6FF731B8803F003039AB24AF64633C1F6FF731A8049F62073C1F6FF731B884FEA93039BB21A4613464FEA83039B184FEA430349F27410AC
:40104000C1F6FF7048F68C51C1F6FF711A461DF055F976E048F68553C1F6FF731B78012B6FD148F68553C1F6FF734FF000021A7048F68C50C1F6FF704FF000014FF4FA7280
:401080001DF0EAF94AF64433C1F6FF734FF000021A804AF64633C1F6FF731A8849F62073C1F6FF731A8049F62073C1F6FF731B8803F003039BB2002B29D049F62073C1F6DB
:4010C000FF731B884FEA93039BB21A4613464FEA83039B184FEA430348F68072C1F6FF729B1848F68C50C1F6FF7019464FF00A021DF004F949F62073C1F6FF731B8803F085
:4011000003039AB24AF64433C1F6FF731A8049F62073C1F6FF731B884FEA93039BB21A4613464FEA83039B184FEA430349F27410C1F6FF7048F68071C1F6FF711A461DF0D7
:40114000DDF817F057F880BD80B584B000AFF871B9717A713B714FF0030019F02BFB12F0B1FD0346FB737B794FEA8303DAB23B794FEA9313DBB2DBB21343DBB2BB7303E00D
:4011800012F0A0FD0346FB73FB7B03F00403002BF6D0BB7B184612F0B5FD3B794FEA8303DAB2FB791343DBB2BB7312F08BFD0346FB7303E012F086FD0346FB73FB7B03F0E3
:4011C0000403002BF6D0BB7B184612F09BFD12F079FD0346FB73BB79BB7312F073FD0346FB7303E012F06EFD0346FB73FB7B03F00403002BF6D0BB7B184612F083FD08E0A9
:4012000012F060FD0346FB73FB7B03F01003002B05D1FB7B03F00103002BF1D000E000BF4FF0070019F0C6FA07F11007BD4680BDB0B500AF4AF22802C1F6FF7249F60823B9
:40124000C0F2020314461D460FCD0FC495E8070003C422704AF24413C1F6FF734FF018021A704AF22800C1F6FF70FFF731FD4AF24810C1F6FF704FF000014FF0FF021DF0DA
:40128000EBF84AF24820C1F6FF704FF000014FF0FF021DF0E1F8B0BDB0B582B000AF4AF22802C1F6FF7249F62423C0F2020314461D460FCD0FC495E80300206004F1040434
:4012C00021704AF24413C1F6FF734FF014021A704AF22800C1F6FF70FFF7FAFC4FF000037B602BE07B68DAB24AF24813C1F6FF7379685B181A704AF24813C1F6FF737A6875
:401300009B181B784AF22800C1F6FF7049F63C21C0F202011A461DF091F90346DAB24AF24413C1F6FF731A704AF22800C1F6FF70FFF7CEFC7B6803F101037B607B68EF2B7D
:40134000D0DD4AF22803C1F6FF7349F64022C0F2020292E80300186003F1040319704AF24413C1F6FF734FF004021A704AF22800C1F6FF70FFF7ACFC07F10807BD46B0BD36
:40138000B0B584B000AF4AF22802C1F6FF7249F64823C0F2020314461D460FCD0FC495E8030084E803004AF24413C1F6FF734FF017021A704AF22800C1F6FF70FFF788FCF9
:4013C00019F0E0FBF8604AF24810C1F6FF701B490DF068FD19F0D6FBB860BA68FB68D31A03F1FF33B3F1FF3F34BF00220122C2F100029B1A7B607A6813464FEA83039B189B
:401400004FEA43034AF22800C1F6FF7049F66021C0F202011A461DF011F90346DAB24AF24413C1F6FF731A704AF22800C1F6FF70FFF74EFC07F11007BD46B0BD38A2FF1F5B
:40144000B0B596B000AF78604FF000037B6519F099FB386507F10803786819467A6D0DF0C5FDF86419F08EFBB864BA6C3B6DD31A03F1FF33B3F1FF3F34BF00220122C2F13E
:4014800000029B1A7B64FB6C002B1DD14AF22802C1F6FF7249F68823C0F2020314461D460FCD0FC40FCD0FC42B6823704AF24413C1F6FF734FF020021A704AF22800C1F6E4
:4014C000FF70FFF705FC3AE0FB6CB3F1FF3F1ED14AF22802C1F6FF7249F6AC23C0F2020311461A464FF06203084611461A461CF005FF4AF24413C1F6FF734FF061021A7089
:401500004AF22800C1F6FF70FFF7E2FB17E04AF22800C1F6FF7049F61031C0F20201FA6C1DF08CF80346DAB24AF24413C1F6FF731A704AF22800C1F6FF70FFF7C9FB7A6C5C
:4015400013464FEA83039B184FEA43034AF22800C1F6FF7049F66021C0F202011A461DF06DF80346DAB24AF24413C1F6FF731A704AF22800C1F6FF70FFF7AAFB7B6D1846CA
:4015800007F15807BD46B0BD80B584B000AF78604AF22800C1F6FF7049F62C31C0F202017A681DF04BF80346DAB24AF24413C1F6FF731A704AF22800C1F6FF70FFF788FB49
:4015C0004FF00003FB6033E04AF24813C1F6FF73FA689B181B784AF22800C1F6FF7049F63C21C0F202011A461DF028F80346DAB24AF24413C1F6FF731A704AF22800C1F635
:40160000FF70FFF765FB4AF24813C1F6FF73FA689B181B786FEA0303DAB24AF24813C1F6FF73F9685B181A70FB6803F10103FB60FA687B689A42C7DB4AF22803C1F6FF736B
:4016400049F65032C0F2020212681146198003F102034FEA12421A704AF24413C1F6FF734FF002021A704AF22800C1F6FF70FFF72FFB4AF22800C1F6FF7049F65431C0F246
:4016800002017A681CF0DAFF0346DAB24AF24413C1F6FF731A704AF22800C1F6FF70FFF717FB4FF00003FB6022E04AF24813C1F6FF73FA689B181B784AF22800C1F6FF7022
:4016C00049F63C21C0F202011A461CF0B7FF0346DAB24AF24413C1F6FF731A704AF22800C1F6FF70FFF7F4FAFB6803F10103FB60FA687B689A42D8DB4AF22803C1F6FF73D4
:4017000049F64022C0F2020292E80300186003F1040319704AF24413C1F6FF734FF004021A704AF22800C1F6FF70FFF7D1FA07F11007BD4680BD00BFB0B582B000AF4AF273
:401740002802C1F6FF7249F67833C0F2020314461D460FCD0FC42B6823604AF24413C1F6FF734FF013021A704AF22800C1F6FF70FFF7AEFA4FF000037B6022E04AF248137C
:40178000C1F6FF737A689B181B784AF22800C1F6FF7049F68C31C0F202011A461CF04EFF0346DAB24AF24413C1F6FF731A704AF22800C1F6FF70FFF78BFA7B6803F10103E9
:4017C0007B607B68EF2BD9DD4AF22803C1F6FF7349F65032C0F2020212681146198003F102034FEA12421A704AF24413C1F6FF734FF002021A704AF22800C1F6FF70FFF7D1
:4018000067FA4AF22802C1F6FF7249F69433C0F2020314460FCB84E80F004AF24413C1F6FF734FF00F021A704AF22800C1F6FF70FFF74EFA4FF000037B6023E07B6803F1F8
:40184000F0024AF24813C1F6FF739B5C4AF22800C1F6FF7049F68C31C0F202011A461CF0EDFE0346DAB24AF24413C1F6FF731A704AF22800C1F6FF70FFF72AFA7B6803F197
:4018800001037B607B680E2BD8DD4AF22803C1F6FF7349F65032C0F2020212681146198003F102034FEA12421A704AF24413C1F6FF734FF002021A704AF22800C1F6FF70E4
:4018C000FFF706FA07F10807BD46B0BD80B485B000AFF8600B467A60FB72FB7A4FEA8303FA68D3187A681A6007F11407BD4680BC704700BF2DE9F04FCFB00EAF78620B4612
:4019000087F823304FF0000387F8FF304FF0000387F8FE304FF00003C7F8DC304FF00003C7F8C4304FF00003C7F8C8304FF00003C7F8CC304FF00003C7F8D0304FF00003BB
:40194000C7F8D4304FF00003C7F8D8304FF00003C7F8C0307B6A1B78A3F12103542B04F2958201A050F823F00D5400008D5E00008D5E00008D5E00008D5E00008D5E0000FA
:401980008D5E00008D5E00008D5E00008D5E00008D5E00008D5E00008D5E00008D5E00008D5E00008D5E00008D5E00008D5E00008D5E00008D5E00008D5E00008D5E000077
:4019C0008D5E00008D5E00008D5E00008D5E00008D5E00008D5E00008D5E00008D5E0000AF5A00008D5E00008D5E00008D5E00008D5E00008D5E0000BD1A00008D5E00002D
:401A00008D5E00008D5E00008D5E00008D5E00008D5E00001B5900008D5E0000531C00008D5E00008D5E00008D5E0000CB410000E74500008D5E00008D5E00008D5E000087
:401A40008D5E00008D5E00008D5E00008D5E00008D5E00008D5E00008D5E00008D5E00008D5E00008D5E00008D5E00008D5E00008D5E00008D5E00008D5E00008D5E0000B6
:401A80008D5E00008D5E00008D5E00008D5E00009F3500008D5E00008D5E00008D5E00008D5E00008D5E00008D5E00008D5E00008D5E00008D5E0000C15200007B6A03F177
:401AC00001031B784D2B2CD14AF22802C1F6FF7249F6A433C0F2020314461D460FCD0FC495E80F0007C4238004F102044FEA134323704AF24413C1F6FF734FF01E021A7057
:401B00004AF22800C1F6FF70FFF7E2F84FF0010016F09EFD48F66053C1F6FF734FF060021A707B6A03F101031B784B2B27D14AF22802C1F6FF7249F6C433C0F20203144672
:401B40001D460FCD0FC495E80F0007C423804AF24413C1F6FF734FF01D021A704AF22800C1F6FF70FFF7B4F84FF0010016F070FD48F66053C1F6FF734FF006021A707B6A06
:401B800003F101031B78412B30D14AF22802C1F6FF7249F6E433C0F2020314461D460FCD0FC40FCD0FC495E80300206004F10404218004F102044FEA114323704AF244132B
:401BC000C1F6FF734FF026021A704AF22800C1F6FF70FFF77DF84FF0010016F039FD48F66053C1F6FF734FF063021A707B6A03F101031B78432B44F04B814AF22802C1F617
:401C0000FF7249F60C43C0F2020314461D460FCD0FC40FCD0FC495E80F0007C423804AF24413C1F6FF734FF02D021A704AF22800C1F6FF70FFF74CF84FF0010016F008FD16
:401C400048F66053C1F6FF734FF062021A7004F01FB97B6A03F101031B78452B40F027814AF6D433C1F6FF731B68002B40F0BB804AF22802C1F6FF7249F63C43C0F202030D
:401C800014461D460FCD0FC495E80300206004F1040421804AF24413C1F6FF734FF015021A704AF22800C1F6FF70FFF711F80DF00DF80CF061FD0CF06BFD4FF006004BF6AF
:401CC0003001C1F6FF7109F0C7FE4AF22800C1F6FF7049F65441C0F202014FF006021CF0ADFC0346DAB24AF24413C1F6FF731A704AF22800C1F6FF70FEF7EAFF0DF0E6FF5A
:401D00000346C7F8C4304AF22800C1F6FF7049F67C41C0F202014FF007021CF08FFC0346DAB24AF24413C1F6FF731A704AF22800C1F6FF70FEF7CCFF4BF21863C1F6FF7347
:401D400093F8FF301A464BF21863C1F6FF7393F800311C464BF21863C1F6FF7393F8013119464BF21863C1F6FF7393F80231009101934AF22800C1F6FF7049F69C41C0F231
:401D8000020123461CF05AFC0346DAB24AF24413C1F6FF731A704AF22800C1F6FF70FEF797FF4FF001000EF063F80346C7F8C430D7F8C4304AF22800C1F6FF7049F6BC4107
:401DC000C0F202011A461CF039FC0346DAB24AF24413C1F6FF731A704AF22800C1F6FF70FEF776FF23E04AF22802C1F6FF7249F6E043C0F2020314461D460FCD0FC495E8EB
:401E00000F0007C4238004F102044FEA134323704AF24413C1F6FF734FF01E021A704AF22800C1F6FF70FEF753FF0CF0B1FC4FF4C0504FF000010BF05DFA4FF4B0504FF082
:401E400000010BF057FA42F608404FF000010BF051FA42F628404FF000010BF04BFA42F648404FF000010BF045FA42F668404FF000010BF03FFA42F688404FF000010BF026
:401E800039FA42F6A8404FF000010BF033FA42F6C8404FF000010BF02DFA42F6E8404FF000010BF027FA16F01FFF16F0ADFE7B6A03F101031B786C2B45D14AF6D433C1F619
:401EC000FF731B68002B26D04AF22802C1F6FF7249F60053C0F2020314461D460FCD0FC495E80300206004F1040421704AF24413C1F6FF734FF014021A704AF22800C1F645
:401F0000FF70FEF7E5FE4AF67C33C1F6FF734FF001021A7017E04AF22800C1F6FF7049F61851C0F202017A6A1CF088FB0346DAB24AF24413C1F6FF731A704AF22800C1F6EF
:401F4000FF70FEF7C5FE7B6A03F101031B784C2B47D14AF6D433C1F6FF731B68002B28D04AF22802C1F6FF7249F65053C0F2020314461D460FCD0FC495E80300206004F19D
:401F8000040421804AF24413C1F6FF734FF015021A704AF22800C1F6FF70FEF799FE4AF67C33C1F6FF734FF000021A7008F0A8FD17E04AF22800C1F6FF7049F61851C0F26B
:401FC00002017A6A1CF03AFB0346DAB24AF24413C1F6FF731A704AF22800C1F6FF70FEF777FE7B6A03F101031B78532B40F05B817B6A03F102031B78642B44D14AF6D43354
:40200000C1F6FF731B68002B3DD04AF68033C1F6FF731B78002B00F046814AF22800C1F6FF7049F66851C0F202014FF003021CF005FB0346DAB24AF24413C1F6FF731A7089
:402040004AF22800C1F6FF70FEF742FE4AF68033C1F6FF734FF000021A704FF4C0500BF0F7F8034687F8FD3097F8FD3023F00803DBB24FF4C05019460BF03CF94FF00300FD
:402080000AF024FA0FE17B6A03F102031B78742B40F0CC804AF6D433C1F6FF731B68002B00F0C4804FF45A700BF0D2F80346C7F8C430D7F8C430002B1AD04AF22800C1F679
:4020C000FF7049F69851C0F202014FF003021CF0B5FA0346DAB24AF24413C1F6FF731A704AF22800C1F6FF70FEF7F2FD03F0DFBE4FF003004FF0010142F22C324FF0000325
:402100000AF0C4F80346C7F8C430D7F8C430032B1CD0D7F8C4304AF22800C1F6FF7049F6C451C0F202014FF003021CF087FA0346DAB24AF24413C1F6FF731A704AF228006A
:40214000C1F6FF70FEF7C4FD03F0B1BE4AF22800C1F6FF7049F6FC51C0F202014FF003021CF06CFA0346DAB24AF24413C1F6FF731A704AF22800C1F6FF70FEF7A9FD4FF41D
:402180005A700BF065F80346C7F8C4304AF68033C1F6FF734FF001021A70D7F8C430172B1CD0D7F8C4304AF22800C1F6FF7049F62461C0F202014FF003021CF03FFA034690
:4021C000DAB24AF24413C1F6FF731A704AF22800C1F6FF70FEF77CFD03F069BE4FF4C0500BF036F8034687F8FC3097F8FC3043F00803DBB24FF4C05019460BF07BF842F6AD
:4022000068400BF025F8034603F01F0387F8FC3097F8FC3003F01B03DBB243F00403DBB242F6684019460BF065F83CE04AF6D433C1F6FF731B68002B18D14AF22800C1F6E0
:40224000FF7049F61851C0F202017A6A1CF0F6F90346DAB24AF24413C1F6FF731A704AF22800C1F6FF70FEF733FD1CE04AF22802C1F6FF7249F65863C0F2020314461D46F1
:402280000FCD0FC495E8030084E803004AF24413C1F6FF734FF017021A704AF22800C1F6FF70FEF715FD7B6A03F101031B78432B40F068817B6A03F102031B78642B44D145
:4022C0004AF6D433C1F6FF731B68002B3DD04AF68133C1F6FF731B78002B00F053814AF22800C1F6FF7049F67061C0F202014FF000021CF0A3F90346DAB24AF24413C1F6BD
:40230000FF731A704AF22800C1F6FF70FEF7E0FC4AF68133C1F6FF734FF000021A704FF4C0500AF095FF034687F8FB3097F8FB3023F00103DBB24FF4C05019460AF0DAFFA7
:402340004FF000000AF0C2F81CE17B6A03F102031B78752B40F0CC804AF6D433C1F6FF731B68002B00F0C4804FF442700AF070FF0346C7F8C430D7F8C430002B1AD04AF220
:402380002800C1F6FF7049F69851C0F202014FF000021CF053F90346DAB24AF24413C1F6FF731A704AF22800C1F6FF70FEF790FC03F07DBD4FF000004FF0020142F22D32F2
:4023C0004FF0000309F062FF0346C7F8C430D7F8C430002B1CD0D7F8C4304AF22800C1F6FF7049F6C451C0F202014FF000021CF025F90346DAB24AF24413C1F6FF731A708F
:402400004AF22800C1F6FF70FEF762FC03F04FBD4AF22800C1F6FF7049F6AC61C0F202014FF000021CF00AF90346DAB24AF24413C1F6FF731A704AF22800C1F6FF70FEF74B
:4024400047FC4FF442700AF003FF0346C7F8C430D7F8C430222B1CD0D7F8C4304AF22800C1F6FF7049F6D061C0F202014FF000021CF0E4F80346DAB24AF24413C1F6FF7304
:402480001A704AF22800C1F6FF70FEF721FC03F00EBD4FF4C0500AF0DBFE034687F8FA3097F8FA3043F00103DBB24FF4C05019460AF020FF42F608400AF0CAFE034603F05A
:4024C0001F0387F8FA3097F8FA3003F01B03DBB243F00403DBB242F6084019460AF00AFF4AF68133C1F6FF734FF001021A7049E07B6A03F102031B78742B06D14AF6D433D1
:40250000C1F6FF731B68002B3CD14AF6D433C1F6FF731B68002B18D14AF22800C1F6FF7049F61851C0F202017A6A1CF087F80346DAB24AF24413C1F6FF731A704AF22800DB
:40254000C1F6FF70FEF7C4FB1CE04AF22802C1F6FF7249F65863C0F2020314461D460FCD0FC495E8030084E803004AF24413C1F6FF734FF017021A704AF22800C1F6FF70C3
:40258000FEF7A6FB7B6A03F101031B78752B40F0E3807B6A03F102031B78642B3ED14AF6D433C1F6FF731B68002B37D04AF67D33C1F6FF734FF000021A704FF4C0500AF07D
:4025C00047FE034687F8F93097F8F93023F01003DBB24FF4C05019460AF08CFE4FF0040009F074FF4AF22800C1F6FF7049F60471C0F202014FF0040242F229331CF01EF86B
:402600000346DAB24AF24413C1F6FF731A704AF22800C1F6FF70FEF75BFB9DE04AF6D433C1F6FF731B68002B7ED04AF67D33C1F6FF734FF001021A704FF4C0500AF008FE89
:40264000034687F8F83097F8F83043F01003DBB24FF4C05019460AF04DFE42F688400AF0F7FD034603F01F0387F8F83097F8F83003F01B03DBB243F00403DBB242F68840DA
:4026800019460AF037FE4FF004004BF6B001C1F6FF7142F2293209F017FD0346C7F8C430D7F8C43000934AF22800C1F6FF7049F63471C0F202014FF0040242F229331BF03F
:4026C000BDFF0346DAB24AF24413C1F6FF731A704AF22800C1F6FF70FEF7FAFA4AF22800C1F6FF7049F67071C0F202014BF6B002C1F6FF721BF0A2FF0346DAB24AF2441302
:40270000C1F6FF731A704AF22800C1F6FF70FEF7DFFA4BF6B000C1F6FF704FF000014FF080021BF099FE17E04AF22800C1F6FF7049F61851C0F202017A6A1BF07FFF034640
:40274000DAB24AF24413C1F6FF731A704AF22800C1F6FF70FEF7BCFA7B6A03F101031B78742B40F00F817B6A03F102031B78642B3ED14AF6D433C1F6FF731B68002B37D04F
:402780004AF67E33C1F6FF734FF000021A704FF4C0500AF05DFD034687F8F73097F8F73023F02003DBB24FF4C05019460AF0A2FD4FF0050009F08AFE4AF22800C1F6FF708B
:4027C00049F68471C0F202014FF0050242F22A331BF034FF0346DAB24AF24413C1F6FF731A704AF22800C1F6FF70FEF771FAC9E04AF6D433C1F6FF731B68002B00F0AA80F5
:402800004AF67E33C1F6FF734FF001021A704FF4C0500AF01DFD034687F8F63097F8F63043F02003DBB24FF4C05019460AF062FD42F6A8400AF00CFD034603F01F0387F8BA
:40284000F63097F8F63003F01B03DBB243F00403DBB242F6A84019460AF04CFD4FF005004AF6B851C1F6FF7142F22A3209F066FA0346C7F8C430D7F8C43000934AF2280003
:40288000C1F6FF7049F6B471C0F202014FF0050242F22A331BF0D2FE0346DAB24AF24413C1F6FF731A704AF22800C1F6FF70FEF70FFA4FF005004AF6B851C1F6FF7142F29C
:4028C0002A3209F03BFA0346C7F8C430D7F8C43000934AF22800C1F6FF7049F6F071C0F202014FF0050242F22A331BF0A7FE0346DAB24AF24413C1F6FF731A704AF2280017
:40290000C1F6FF70FEF7E4F94AF22800C1F6FF7049F67071C0F202014AF6B852C1F6FF721BF08CFE0346DAB24AF24413C1F6FF731A704AF22800C1F6FF70FEF7C9F94AF69D
:40294000B850C1F6FF704FF000014FF080021BF083FD17E04AF22800C1F6FF7049F61851C0F202017A6A1BF069FE0346DAB24AF24413C1F6FF731A704AF22800C1F6FF70C4
:40298000FEF7A6F97B6A03F101031B784E2B40D14AF6D433C1F6FF731B68002B21D04FF001000DF065FA0346C7F8C430D7F8C4304AF22800C1F6FF7049F6BC41C0F20201A4
:4029C0001A461BF03BFE0346DAB24AF24413C1F6FF731A704AF22800C1F6FF70FEF778F917E04AF22800C1F6FF7049F61851C0F202017A6A1BF022FE0346DAB24AF24413D3
:402A0000C1F6FF731A704AF22800C1F6FF70FEF75FF97B6A03F101031B78442B7FD14AF6D433C1F6FF731B68002B60D04AF6E853C0F2020307F128040FCB07C4238007F1F9
:402A400036024FF0720310464FF000011A461BF003FD07F1280207F1BC03CD4811461A4609F018F80346C7F8C430D7F8C4304AF22800C1F6FF704AF23001C0F202011A46F0
:402A80001BF0DCFD0346DAB24AF24413C1F6FF731A704AF22800C1F6FF70FEF719F9D7F8C430012B3BD197F8BC301A4697F8BD3097F8BE10084697F8BF10009001914AF2CD
:402AC0002800C1F6FF704AF25401C0F202011BF0B5FD0346DAB24AF24413C1F6FF731A704AF22800C1F6FF70FEF7F2F817E04AF22800C1F6FF7049F61851C0F202017A6A3F
:402B00001BF09CFD0346DAB24AF24413C1F6FF731A704AF22800C1F6FF70FEF7D9F87B6A03F101031B78692B40F0B0807B6A03F1020107F1C40207F1C40303F1040307F1D6
:402B4000C40000F10800009007F1C40000F10C00019008464AF28001C0F202011BF096FD034687F8FE3097F9FE30042B37D14FF0000387F8FE302EE097F9FE304FEA8303FB
:402B800007F58071CB1853F83C3C002B1DDB97F9FE304FEA830307F58072D31853F83C3CFF2B12DC97F9FE1097F9FE304FEA830307F58070C31853F83C3CDAB24BF2186345
:402BC000C1F6FF735B1883F8AE2097F8FE3003F1010387F8FE3097F9FE30032BCCDD48F2C412C1F6FF724BF21863C1F6FF73144603F1A8050FCD20606160A260E3602868F3
:402C00002061AA88AB79A282A3754AF6D433C1F6FF731B68002B04D00BF0AEFD0BF0B8FD34E04BF21863C1F6FF7393F8AE301A464BF21863C1F6FF7393F8AF301C464BF291
:402C40001863C1F6FF7393F8B03019464BF21863C1F6FF7393F8B130009101934AF22800C1F6FF704AF28C01C0F2020123461BF0E5FC0346DAB24AF24413C1F6FF731A70FC
:402C80004AF22800C1F6FF70FEF722F87B6A03F101031B78672B40F0B2807B6A03F1020107F1C40207F1C40303F1040307F1C40000F10800009007F1C40000F10C00019034
:402CC00008464AF28001C0F202011BF0DFFC034687F8FE3097F9FE30042B37D14FF0000387F8FE302EE097F9FE304FEA830307F58071CB1853F83C3C002B1DDB97F9FE3055
:402D00004FEA830307F58072D31853F83C3CFF2B12DC97F9FE1097F9FE304FEA830307F58070C31853F83C3CDAB24BF21863C1F6FF735B1883F8B62097F8FE3003F1010395
:402D400087F8FE3097F9FE30032BCCDD48F2C412C1F6FF724BF21863C1F6FF73144603F1A8050FCD20606160A260E36028682061AA88AB79A282A3754AF6D433C1F6FF7388
:402D80001B68002B06D00BF0F7FC0BF001FD36E0D2B6FF1F4BF21863C1F6FF7393F8B6301A464BF21863C1F6FF7393F8B7301C464BF21863C1F6FF7393F8B83019464BF295
:402DC0001863C1F6FF7393F8B930009101934AF22800C1F6FF704AF2C801C0F2020123461BF02CFC0346DAB24AF24413C1F6FF731A704AF22800C1F6FF70FDF769FF7B6AD0
:402E000003F101031B78642B40F0A4807B6A03F1020107F1C40207F1C40303F1040307F1C40000F10800009007F1C40000F10C00019008464AF20811C0F202011BF026FCBC
:402E4000034687F8FE3097F9FE30042B37D14FF0000387F8FE302EE097F9FE304FEA830307F58071CB1853F83C3C002B1DDB97F9FE304FEA830307F58072D31853F83C3C1E
:402E8000FF2B12DC97F9FE1097F9FE304FEA830307F58070C31853F83C3CDAB24BF21863C1F6FF735B1883F8BA2097F8FE3003F1010387F8FE3097F9FE30032BCCDD48F2EF
:402EC000C412C1F6FF724BF21863C1F6FF73144603F1A8050FCD20606160A260E36028682061AA88AB79A282A3754BF21863C1F6FF7393F8BA301A464BF21863C1F6FF735C
:402F000093F8BB301C464BF21863C1F6FF7393F8BC3019464BF21863C1F6FF7393F8BD30009101934AF22800C1F6FF704AF21411C0F2020123461BF081FB0346DAB24AF2E3
:402F40004413C1F6FF731A704AF22800C1F6FF70FDF7BEFE7B6A03F101031B786E2B40F08E807B6A03F1020107F1C40207F1C40303F1040307F1C40000F10800009007F135
:402F8000C40000F10C00019008464AF28001C0F202011BF07BFB034687F8FE3097F9FE30042B37D14FF0000387F8FE302EE097F9FE304FEA830307F58071CB1853F83C3C86
:402FC000002B1DDB97F9FE304FEA830307F58072D31853F83C3CFF2B12DC97F9FE1097F9FE304FEA830307F58070C31853F83C3CDAB24BF21863C1F6FF735B1883F8FF205E
:4030000097F8FE3003F1010387F8FE3097F9FE30032BCCDD4BF21863C1F6FF7393F8FF301A464BF21863C1F6FF7393F800311C464BF21863C1F6FF7393F8013119464BF265
:403040001863C1F6FF7393F80231009101934AF22800C1F6FF7049F69C41C0F2020123461BF0ECFA0346DAB24AF24413C1F6FF731A704AF22800C1F6FF70FDF729FE7B6A6F
:4030800003F101031B78702B25D17B6A03F1020318464AF23411C0F20201BA4A1BF0F6FA034687F8FE304AF22800C1F6FF704AF23811C0F20201B34A1BF0C0FA0346DAB232
:4030C0004AF24413C1F6FF731A704AF22800C1F6FF70FDF7FDFD7B6A03F101031B78502B40F0CD804AF6D433C1F6FF731B68002B55D007F1B803A448A2491A4608F0CAFCBF
:403100000346C7F8C430D7F8C4304AF22800C1F6FF704AF24C11C0F202019A4A1BF08EFA0346DAB24AF24413C1F6FF731A704AF22800C1F6FF70FDF7CBFDD7F8C430012B31
:4031400050D197F8B8301A4697F8B93097F8BA10084697F8BB10009001914AF22800C1F6FF704AF25401C0F202011BF067FA0346DAB24AF24413C1F6FF731A704AF2280001
:40318000C1F6FF70FDF7A4FD4BF21863C1F6FF7303F1FF0307F1B8021068186022E04AF22802C1F6FF724AF27413C0F2020314461D460FCD0FC40FCD0FC42B681A46228021
:4031C00004F102044FEA134323704AF24413C1F6FF734FF022021A704AF22800C1F6FF70FDF776FD4AF22800C1F6FF704AF23811C0F20201634A1BF021FA0346DAB24AF270
:403200004413C1F6FF731A704AF22800C1F6FF70FDF75EFD4BF21863C1F6FF7393F8FF301A464BF21863C1F6FF7393F800311C464BF21863C1F6FF7393F8013119464BF277
:403240001863C1F6FF7393F80231009101934AF22800C1F6FF704AF29811C0F2020123461BF0ECF90346DAB24AF24413C1F6FF731A704AF22800C1F6FF70FDF729FD7B6AA6
:4032800003F101031B78732B40F0B5807B6A03F1020107F1C40207F1C40303F1040307F1C40000F10800009007F1C40000F10C00019008464AF28001C0F202011BF0E6F9F3
:4032C000034687F8FE3097F9FE30042B37D14FF0000387F8FE302EE097F9FE304FEA830307F58071CB1853F83C3C002B1DDB97F9FE304FEA830307F58072D31853F83C3C9A
:40330000FF2B12DC97F9FE1097F9FE304FEA830307F58070C31853F83C3CDAB24BF21863C1F6FF735B1883F8B22097F8FE3003F1010387F8FE3097F9FE30032BCCDD48F272
:40334000C412C1F6FF724BF21863C1F6FF73144603F1A8050FCD20606160A260E36028682061AA88AB79A282A3754AF6D433C1F6FF731B68002B09D00BF0FEF90BF008FA88
:4033800039E000BFD7B6FF1FD2B6FF1F4BF21863C1F6FF7393F8B2301A464BF21863C1F6FF7393F8B3301C464BF21863C1F6FF7393F8B43019464BF21863C1F6FF7393F86A
:4033C000B530009101934AF22800C1F6FF704AF2BC11C0F2020123461BF030F90346DAB24AF24413C1F6FF731A704AF22800C1F6FF70FDF76DFC7B6A03F101031B786D2BD4
:4034000042F048857B6A03F1020107F1C40207F1C40303F1040307F1C40000F10800009007F1C40000F10C00019007F1C40000F11000029007F1C40000F1140003900846B9
:403440004AF2FC11C0F202011BF020F9034687F8FE3097F9FE30062B37D14FF0000387F8FE302EE097F9FE304FEA830307F58071CB1853F83C3C002B1DDB97F9FE304FEA16
:40348000830307F58072D31853F83C3CFF2B12DC97F9FE1097F9FE304FEA830307F58070C31853F83C3CDAB24BF21863C1F6FF735B1883F8A82097F8FE3003F1010387F8D6
:4034C000FE3097F9FE30032BCCDD48F2C412C1F6FF724BF21863C1F6FF73144603F1A8050FCD20606160A260E36028682061AA88AB79A282A3754AF6D433C1F6FF731B68FD
:40350000002B05D00BF038F90BF042F902F0C2BC4BF21863C1F6FF7393F8A8301A464BF21863C1F6FF7393F8A9301C464BF21863C1F6FF7393F8AA301D464BF21863C1F656
:40354000FF7393F8AB3018464BF21863C1F6FF7393F8AC3019464BF21863C1F6FF7393F8AD3000950190029103934AF22800C1F6FF704AF21021C0F2020123461BF05EF860
:403580000346DAB24AF24413C1F6FF731A704AF22800C1F6FF70FDF79BFB02F07BBC7B6A03F101031B78762B42D14AF64833C1F6FF734FF001021A704FF0000387F8FF30EF
:4035C00013E097F8FF304BF21862C1F6FF7203F14A034FEA8303D3184FF07E525A6097F8FF3003F1010387F8FF3097F8FF30032BE7D94AF22802C1F6FF724AF25C23C0F27C
:40360000020314461D460FCD0FC40FCD0FC495E8030084E803004AF24413C1F6FF734FF027021A704AF22800C1F6FF70FDF750FB7B6A03F101031B78562B61D14AF6483326
:40364000C1F6FF734FF000021A704AF22802C1F6FF724AF28423C0F2020314461D460FCD0FC40FCD0FC495E8070003C422704AF24413C1F6FF734FF028021A704AF2280023
:40368000C1F6FF70FDF724FB4FF0000387F8FF3032E097F8FF4097F8FF304BF21862C1F6FF7203F14A034FEA8303D3185B68184619F0E6FB02460B46CDE900234AF2280098
:4036C000C1F6FF704AF2B021C0F2020122461AF0B5FF0346DAB24AF24413C1F6FF731A704AF22800C1F6FF70FDF7F2FA97F8FF3003F1010387F8FF3097F8FF30032BC8D946
:403700007B6A03F101031B78632B66D14AF64C30C1F6FF704FF000014FF020021AF09CFE4FF0000387F8FF3028E097F8FF204BF21863C1F6FF7302F142024FF6FF7143F87F
:40374000221097F8FF204BF21863C1F6FF7302F146014FF00102CFF6FF7243F8212097F8FF204AF66C33C1F6FF734FF00101995497F8FF3003F1010387F8FF3097F8FF3054
:40378000032BD2D94AF22802C1F6FF724AF2CC23C0F2020314461D460FCD0FC495E80F0007C4238004F102044FEA134323704AF24413C1F6FF734FF01E021A704AF2280034
:4037C000C1F6FF70FDF784FA4AF67433C1F6FF734FF001021A7002F05FBB7B6A03F101031B78432B40F02D814AF22802C1F6FF724AF2EC23C0F2020314461D460FCD0FC491
:4038000095E80F0084E80F004AF24413C1F6FF734FF01F021A704AF22800C1F6FF70FDF757FA4AF67433C1F6FF734FF000021A704FF0000387F8FF30FDE097F8FF4097F807
:40384000FF204BF21863C1F6FF7302F1420253F82230184619F054FF054697F8FF204BF21863C1F6FF7302F1460253F8222097F8FF104BF21863C1F6FF7301F1420153F819
:403880002130D31A184619F03BFF02464BF21863C1F6FF73D3F83C311046194619F084FF03462846194619F077FE034618461AF041F901464BF21862C1F6FF7204F12803C2
:4038C0004FEAC303D318596097F8FF4097F8FF204BF21863C1F6FF7302F1420253F82230184619F00DFF054697F8FF204BF21863C1F6FF7302F1460253F8222097F8FF1041
:403900004BF21863C1F6FF7301F1420153F82130D31A184619F0F4FE02464BF21863C1F6FF73D3F840311046194619F03DFF03462846194619F030FE034618461AF0FAF840
:4039400001464BF21862C1F6FF724FEAC403D318C3F8481197F8FF2097F8FF104BF21863C1F6FF7301F1420153F8214097F8FF104BF21863C1F6FF7301F1460153F82130C0
:4039800000934AF22800C1F6FF704AF20C31C0F2020123461AF052FE0346DAB24AF24413C1F6FF731A704AF22800C1F6FF70FDF78FF997F8FF5097F8FF304BF21862C1F6CE
:4039C000FF7203F128034FEAC303D3185C6897F8FF304BF21862C1F6FF724FEAC303D318D3F8483100934AF22800C1F6FF704AF23431C0F202012A4623461AF01FFE034602
:403A0000DAB24AF24413C1F6FF731A704AF22800C1F6FF70FDF75CF997F8FF204AF66C33C1F6FF734FF00101995497F8FF3003F1010387F8FF3097F8FF30032B7FF6FDAE8D
:403A4000C1E37B6A03F101031B784C2B40F061817B6A03F1020207F1C00310464AF26831C0F202011A461AF011FE034687F8FE3097F9FE30012B2AD1D7F8C03018464FF081
:403A800000011AF04DF80346002B20D0D7F8C03018464FF07E511AF025F80346002B16D04BF21863C1F6FF73D3F84021D7F8C030104619461AF034F80346002B07D0D7F8D5
:403AC000C0204BF21863C1F6FF73C3F83C214BF21863C1F6FF73D3F83C31184619F0D0F902460B464AF22800C1F6FF704AF26C31C0F202011AF0A2FD0346DAB24AF24413E2
:403B0000C1F6FF731A704AF22800C1F6FF70FDF7DFF84FF0000387F8FF30F4E097F8FF4097F8FF204BF21863C1F6FF7302F1420253F82230184619F0E3FD054697F8FF2048
:403B40004BF21863C1F6FF7302F1460253F8222097F8FF104BF21863C1F6FF7301F1420153F82130D31A184619F0CAFD02464BF21863C1F6FF73D3F83C311046194619F012
:403B800013FE03462846194619F006FD0346184619F0D0FF01464BF21862C1F6FF7204F128034FEAC303D318596097F8FF4097F8FF204BF21863C1F6FF7302F1420253F88B
:403BC0002230184619F09CFD054697F8FF204BF21863C1F6FF7302F1460253F8222097F8FF104BF21863C1F6FF7301F1420153F82130D31A184619F083FD02464BF21863AD
:403C0000C1F6FF73D3F840311046194619F0CCFD03462846194619F0BFFC0346184619F089FF01464BF21862C1F6FF724FEAC403D318C3F8481197F8FF2097F8FF104BF2D8
:403C40001863C1F6FF7301F1420153F8214097F8FF104BF21863C1F6FF7301F1460153F8213000934AF22800C1F6FF704AF20C31C0F2020123461AF0E1FC0346DAB24AF2BF
:403C80004413C1F6FF731A704AF22800C1F6FF70FDF71EF897F8FF5097F8FF304BF21862C1F6FF7203F128034FEAC303D3185C6897F8FF304BF21862C1F6FF724FEAC30382
:403CC000D318D3F8483100934AF22800C1F6FF704AF23431C0F202012A4623461AF0AEFC0346DAB24AF24413C1F6FF731A704AF22800C1F6FF70FCF7EBFF97F8FF3003F161
:403D0000010387F8FF3097F8FF30032B7FF606AF59E27B6A03F101031B78482B40F061817B6A03F1020207F1C00310464AF26831C0F202011A461AF0A9FC034687F8FE300E
:403D400097F9FE30012B2AD1D7F8C03018464FF0000119F0E5FE0346002B20D0D7F8C03018464FF07E5119F0BDFE0346002B16D04BF21863C1F6FF73D3F83C21D7F8C030A0
:403D80001046194619F0AEFE0346002B07D0D7F8C0204BF21863C1F6FF73C3F840214BF21863C1F6FF73D3F84031184619F068F802460B464AF22800C1F6FF704AF28C31A2
:403DC000C0F202011AF03AFC0346DAB24AF24413C1F6FF731A704AF22800C1F6FF70FCF777FF4FF0000387F8FF30F4E097F8FF4097F8FF204BF21863C1F6FF7302F1420268
:403E000053F82230184619F07BFC054697F8FF204BF21863C1F6FF7302F1460253F8222097F8FF104BF21863C1F6FF7301F1420153F82130D31A184619F062FC02464BF2DE
:403E40001863C1F6FF73D3F83C311046194619F0ABFC03462846194619F09EFB0346184619F068FE01464BF21862C1F6FF7204F128034FEAC303D318596097F8FF4097F8ED
:403E8000FF204BF21863C1F6FF7302F1420253F82230184619F034FC054697F8FF204BF21863C1F6FF7302F1460253F8222097F8FF104BF21863C1F6FF7301F1420153F8F6
:403EC0002130D31A184619F01BFC02464BF21863C1F6FF73D3F840311046194619F064FC03462846194619F057FB0346184619F021FE01464BF21862C1F6FF724FEAC4031D
:403F0000D318C3F8481197F8FF2097F8FF104BF21863C1F6FF7301F1420153F8214097F8FF104BF21863C1F6FF7301F1460153F8213000934AF22800C1F6FF704AF20C318A
:403F4000C0F2020123461AF079FB0346DAB24AF24413C1F6FF731A704AF22800C1F6FF70FCF7B6FE97F8FF5097F8FF304BF21862C1F6FF7203F128034FEAC303D3185C6811
:403F800097F8FF304BF21862C1F6FF724FEAC303D318D3F8483100934AF22800C1F6FF704AF23431C0F202012A4623461AF046FB0346DAB24AF24413C1F6FF731A704AF248
:403FC0002800C1F6FF70FCF783FE97F8FF3003F1010387F8FF3097F8FF30032B7FF606AFF1E07B6A03F101031B78542B5AD14BF21863C1F6FF7393F8283183F00103DAB2D2
:404000004BF21863C1F6FF7383F828214BF21863C1F6FF7393F82831002B22D04AF22802C1F6FF724AF2B033C0F2020314461D460FCD0FC40FCD0FC40FCD0FC495E803004B
:40404000206004F10404218004F102044FEA114323704AF24413C1F6FF734FF036021A7018E04AF22802C1F6FF724AF2E833C0F2020314461D460FCD0FC40FCD0FC40FCDBF
:404080000FC42B6823704AF24413C1F6FF734FF030021A704AF22800C1F6FF70FCF718FE01F0FABE7B6A03F101031B786D2B2AD14BF21863C1F6FF734FF0010283F86421EE
:4040C0004AF22802C1F6FF724AF21C43C0F2020314461D460FCD0FC40FCD0FC40FCD0FC495E80F0007C423704AF24413C1F6FF734FF03C021A704AF22800C1F6FF70FCF7EC
:40410000E7FD01F0C9BE7B6A03F101031B784D2B27D14BF21863C1F6FF734FF0000283F864214AF22802C1F6FF724AF25C43C0F2020311461A464FF04703084611461A46BC
:404140001AF0DCF84AF24413C1F6FF734FF046021A704AF22800C1F6FF70FCF7B9FD01F09BBE7B6A03F101031B786B2B41F094864AF22802C1F6FF724AF2A443C0F202035E
:4041800014461D460FCD0FC495E80F0007C4238004F102044FEA134323704AF24413C1F6FF734FF01E021A704AF22800C1F6FF70FCF78EFD4AF67433C1F6FF734FF002027C
:4041C0001A7001F069BE01F067BE786A4AF2C441C0F202011AF052FB0346002B5DD14FF0050387F8FE3023E097F9FE304AF22800C1F6FF704AF2CC41C0F202011A461AF08F
:404200001DFA0346DAB24AF24413C1F6FF731A704AF22800C1F6FF70FCF75AFD4FF47A7014F016FA97F8FE3003F1FF3387F8FE3097F9FE30002BD7DC4AF22802C1F6FF727D
:404240004AF22053C0F2020314461D460FCD0FC40FCD0FC42B681A46228004F102044FEA134323704AF24413C1F6FF734FF022021A704AF22800C1F6FF70FCF729FD4FF080
:40428000640014F0E5F910F073F84FF47A7014F0DFF914F0C9F901F001BE7B6A03F101031B78612B27D14AF22802C1F6FF724AF24453C0F2020314461D460FCD0FC495E8D9
:4042C0000300206004F1040421804AF24413C1F6FF734FF015021A704AF22800C1F6FF70FCF7F6FC4BF2F653C1F6FF734FF001021A7001F0D3BD7B6A03F101031B786E2B8D
:404300002CD14AF22802C1F6FF724AF25C53C0F2020314461D460FCD0FC495E80300206004F10404218004F102044FEA114323704AF24413C1F6FF734FF016021A704AF252
:404340002800C1F6FF70FCF7C3FC4BF2F653C1F6FF734FF000021A7001F0A0BD7B6A03F101031B78692B03D1FCF762FF01F096BD7B6A03F101031B786C2B03D1FCF78CFFAC
:4043800001F08CBD7B6A03F101031B78702B03D1FDF7D2F901F082BD7B6A03F101031B78632B24D17B6A03F1020207F1C40310464AF27451C0F202011A461AF067F9034647
:4043C00087F8FE30D7F8C430002B0ADBD7F8C430EF2B06DCD7F8C4301846FDF7D5F801F05DBD4FF00100FDF7CFF801F057BD7B6A03F101031B78642B0AD14AF24810C1F66C
:40440000FF70FDF71DF8034687F8FF3001F046BD7B6A03F101031B78652B03D1FCF7B0FF01F03CBD7B6A03F101031B78442B2CD14BF62D03C1F6FF734FF000021A704AF23C
:404440002802C1F6FF724AF27853C0F2020314461D460FCD0FC495E80300206004F10404218004F102044FEA114323704AF24413C1F6FF734FF016021A704AF22800C1F64F
:40448000FF70FCF725FC01F009BD7B6A03F101031B78452B27D14BF62D03C1F6FF734FF001021A704AF22802C1F6FF724AF29053C0F2020314461D460FCD0FC495E8030034
:4044C000206004F1040421804AF24413C1F6FF734FF015021A704AF22800C1F6FF70FCF7F7FB01F0DBBC7B6A03F101031B78462B1ED14AF22802C1F6FF724AF2A853C0F2C4
:40450000020314461D460FCD0FC40FCD0FC42B6823804AF24413C1F6FF734FF021021A704AF22800C1F6FF70FCF7D2FB01F0B6BC7B6A03F101031B78542B41F0AF844FF03E
:40454000000387F8FF3016E097F8FF2048F22013C1F6FF73D31897F8FF204AF6E070C1F6FF7011461A46FDF7B1F997F8FF3003F1010387F8FF304BF60803C1F6FF731B7840
:4045800097F8FF209A42DFD34AF22802C1F6FF724AF2CC53C0F2020314461D460FCD0FC40FCD0FC495E80300206004F10404218004F102044FEA114323704AF24413C1F601
:4045C000FF734FF026021A704AF22800C1F6FF70FCF77EFB4BF2F653C1F6FF734FF001021A7001F05BBC7B6A03F101031B78532B40F054817B6A03F102031B78772B40F0A9
:404600004D817B6A03F1030107F1C40207F1C40303F1040308464AF2F451C0F202011AF035F8034687F8FE3097F9FE30022B36D1D7F8C410D7F8C830DAB24BF21863C1F64F
:40464000FF735B1883F86D20D7F8C4204FF00303C8F200031340002B05DA03F1FF3363F0030303F1010387F8F53097F8F50097F9F5204BF21863C1F6FF739B1893F86D105B
:4046800097F8F52097F9F53003F104044BF21863C1F6FF731B1993F86D30FCF755FD4BF21863C1F6FF7393F86D301A464BF21863C1F6FF7393F86E301C464BF21863C1F6DF
:4046C000FF7393F86F309E464BF21863C1F6FF7393F870301E464BF21863C1F6FF7393F871301D464BF21863C1F6FF7393F8723018464BF21863C1F6FF7393F87330194680
:404700004BF21863C1F6FF7393F87430CDF800E0019602950390049105934AF22800C1F6FF704AF2FC51C0F20201234619F086FF0346DAB24AF24413C1F6FF731A704AF2C0
:404740002800C1F6FF70FCF7C3FA4BF21863C1F6FF7393F86D30184601F09EFE0346184618F08EFB82468B464BF21863C1F6FF7393F86E30184601F08FFE0346184618F0E1
:404780007FFB804689464BF21863C1F6FF7393F86F30184601F080FE0346184618F070FBC7E906014BF21863C1F6FF7393F87030184601F071FE0346184618F061FBC7E9BC
:4047C00004014BF21863C1F6FF7393F87130184601F062FE0346184618F052FBC7E902014BF21863C1F6FF7393F87230184601F053FE0346184618F043FBC7E900014BF2C0
:404800001863C1F6FF7393F87330184601F044FE0346184618F034FB04460D464BF21863C1F6FF7393F87430184601F035FE0346184618F025FB02460B46CDE90089D7E9A1
:404840000601CDE90201D7E90401CDE90401D7E90201CDE90601D7E90001CDE90801CDE90A45CDE90C234AF22800C1F6FF704AF23C61C0F2020152465B4619F0DFFE03468E
:40488000DAB24AF24413C1F6FF731A704AF22800C1F6FF70FCF71CFA00F010BD7B6A03F101031B78432B40F0B9807B6A03F1020107F1C40207F1DC0308464AF27061C0F211
:4048C000020119F0E3FE034687F8FE3097F9FE30022B68D1D7F8C430012B64D1D7F8C43003F1FF32D7F8DC104BF21863C1F6FF7302F1180243F82210D7F8C43003F1FF32A7
:404900004BF21863C1F6FF7302F1180253F82230184613F011FAD7F8C450D7F8C43003F1FF324BF21863C1F6FF7302F1180253F82240D7F8C43003F1FF324BF21863C1F6C3
:40494000FF7302F1180253F8223003F10103184618F0D2FE03464FF4A040C4F2C370194618F0D6FF0346184618F08AFA02460B46CDE900234AF22800C1F6FF704AF2786118
:40498000C0F202012A46234619F058FE0346DAB24AF24413C1F6FF731A704AF22800C1F6FF70FCF795F9D7F8C430012B41F07882D7F8C45013F0D0F9044613F0CDF90346BF
:4049C000184618F099FE03464FF4A040C4F2C370194618F09DFF0346184618F051FA02460B46CDE900234AF22800C1F6FF704AF27861C0F202012A46234619F01FFE03465A
:404A0000DAB24AF24413C1F6FF731A704AF22800C1F6FF70FCF75CF901F042BA7B6A03F101031B78542B57D17B6A03F1020107F1C40207F1C40303F1040308464AF2F451AB
:404A4000C0F2020119F022FE034687F8FE3097F9FE30022B09D1D7F8C430DAB2D7F8C830DBB210461946FBF70BFB4BF21863C1F6FF7393F853301A464BF21863C1F6FF731D
:404A800093F854301C464BF21863C1F6FF7393F8553019464BF21863C1F6FF7393F85630009101934AF22800C1F6FF704AF2B461C0F20201234619F0C1FD0346DAB24AF24D
:404AC0004413C1F6FF731A704AF22800C1F6FF70FCF7FEF801F0E4B97B6A03F101031B78742B57D17B6A03F1020107F1C40207F1C40303F1040308464AF2F451C0F202019C
:404B000019F0C4FD034687F8FE3097F9FE30022B09D1D7F8C430DAB2D7F8C830DBB210461946FBF7CDFA4BF21863C1F6FF7393F857301A464BF21863C1F6FF7393F8583098
:404B40001C464BF21863C1F6FF7393F8593019464BF21863C1F6FF7393F85A30009101934AF22800C1F6FF704AF2D461C0F20201234619F063FD0346DAB24AF24413C1F6C3
:404B8000FF731A704AF22800C1F6FF70FCF7A0F801F086B97B6A03F101031B786E2B40F0BB807B6A03F1020207F1C40310464AF27451C0F202011A4619F068FD034687F802
:404BC000FE3097F9FE30012B1BD1D7F8C430002B17DDD7F8C430042B13DCD7F8C430DAB24BF21863C1F6FF7383F85C204BF21863C1F6FF7393F85C3018464FF001010EF032
:404C000043F948F2EA13C1F6FF731B78DBB2012B18D14FF0060300934AF22800C1F6FF704AF2F861C0F2020142F210724FF0100319F004FD0346DAB24AF24413C1F6FF7351
:404C40001A7061E048F2EA13C1F6FF731B78DBB2022B18D14FF0080300934AF22800C1F6FF704AF24C71C0F2020142F210724FF00F0319F0E3FC0346DAB24AF24413C1F6B0
:404C8000FF731A7040E048F2EA13C1F6FF731B78DBB2032B18D14FF0090300934AF22800C1F6FF704AF2A071C0F2020142F210724FF00F0319F0C2FC0346DAB24AF24413A1
:404CC000C1F6FF731A701FE048F2EA13C1F6FF731B78DBB2042B17D14FF0050300934AF22800C1F6FF704AF2F471C0F2020142F210724FF0100319F0A1FC0346DAB24AF2F2
:404D00004413C1F6FF731A704AF22800C1F6FF70FBF7DEFF01F0C4B87B6A03F101031B78422B4DD17B6A03F1020207F1C40310464AF27451C0F202011A4619F0A7FC0346AB
:404D400087F8FE3097F9FE30012B19D1D7F8C430002B15DBD7F8C430032B11DCD7F8C430DAB24BF21863C1F6FF7383F85B204BF21863C1F6FF7393F85B3018460DF03CFC46
:404D80004BF21863C1F6FF7393F85B304AF22800C1F6FF704AF64801C0F202011A4619F04DFC0346DAB24AF24413C1F6FF731A704AF22800C1F6FF70FBF78AFF01F070B849
:404DC0007B6A03F101031B78442B4DD17B6A03F1020207F1C40310464AF27451C0F202011A4619F053FC034687F8FE3097F9FE30012B19D1D7F8C430002B15DBD7F8C430EB
:404E0000FF2B11DCD7F8C430DAB24BF21863C1F6FF7383F85D204BF21863C1F6FF7393F85D30184616F068FE4BF21863C1F6FF7393F85D304AF22800C1F6FF704AF66C0140
:404E4000C0F202011A4619F0F9FB0346DAB24AF24413C1F6FF731A704AF22800C1F6FF70FBF736FF01F01CB87B6A03F101031B786C2B40F08D807B6A03F1020107F1C402B1
:404E800007F1C40303F1140308464AF68801C0F2020119F0FBFB034687F8FE3097F9FE30002B40F3FD87D7F8C430002BC0F2F887D7F8C4300F2B00F3F38797F9FE30012B54
:404EC0000BDDD7F8C430DAB2D7F8D83052B21046194614F0BFF914F047F8D7F8C420D7F8C4104CF6D823C1F6FF7333F811301C46D7F8C4104CF63833C1F6FF735B5C1D46CF
:404F0000D7F8C4104BF2F853C1F6FF7333F811301846D7F8C4104AF63C63C1F6FF7333F811301946D7F8C4604BF60C03C1F6FF7333F8163000950190029103934AF228004D
:404F4000C1F6FF704AF69001C0F20201234619F075FB0346DAB24AF24413C1F6FF731A704AF22800C1F6FF70FBF7B2FED7F8C410D7F8C4204CF63833C1F6FF739A5C4BF2FD
:404F80001863C1F6FF735B1883F8962000F088BF7B6A03F101031B784C2B40F0F9807B6A03F1020107F1C40207F1C40303F1040307F1C40000F10800009007F1C40000F19C
:404FC0000C00019007F1C40000F11000029007F1C40000F11400039008464AF6DC01C0F2020119F053FB034687F8FE3097F9FE30002B40F35587D7F8C430002BC0F2508795
:40500000D7F8C4300F2B00F34B8797F9FE30012B13DDD7F8C830002B03D040F6FF73C7F8C830D7F8C430DAB2D7F8C8309BB252B21BB21046194614F0E7F897F9FE30022BF9
:405040000ADDD7F8C420D7F8CC3099B24BF2F853C1F6FF7323F8121097F9FE30032B0ADDD7F8C420D7F8D03099B24AF63C63C1F6FF7323F8121097F9FE30042B0ADDD7F80A
:40508000C420D7F8D43099B24BF60C03C1F6FF7323F8121097F9FE30062B0BD1D7F8C430DAB2D7F8D83052B21046194614F0D2F813F05AFF13F046FE4CF6F820C1F6FF709D
:4050C0004FF000014FF03C0219F0C6F913F03AFED7F8C420D7F8C4104CF6D823C1F6FF7333F811301C46D7F8C4104CF63833C1F6FF735B5C1D46D7F8C4104BF2F853C1F6F1
:40510000FF7333F811301846D7F8C4104AF63C63C1F6FF7333F811301946D7F8C4604BF60C03C1F6FF7333F8163000950190029103934AF22800C1F6FF704AF6F001C0F224
:405140000201234619F07AFA0346DAB24AF24413C1F6FF731A704AF22800C1F6FF70FBF7B7FDD7F8C400D7F8C4204CF6D823C1F6FF7333F812104BF21862C1F6FF7200F132
:4051800038034FEA4303D3180A46DA8000F088BE7B6A03F101031B78612B40F0818607F1A80318464FF000014FF0100219F054F97B6A03F1020107F1C40207F1A8030846C4
:4051C0004AF63811C0F2020119F060FA034687F8FE304FF0000387F8B730D7F8C430032B49DCD7F8C430002B45DB97F9FE30002B41DD97F8A830002B16D097F9FE30012BE3
:4052000012DDD7F8C43003F101034FEA03124BF21863C1F6FF73D31803F1030207F1A8031046194619F018FCD7F8C420D7F8C43003F101034FEA03114BF21863C1F6FF73A0
:40524000CB1803F103034AF22800C1F6FF704AF64011C0F2020119F0F1F90346DAB24AF24413C1F6FF731A704AF22800C1F6FF70FBF72EFD22E04AF22802C1F6FF724AF6FC
:405280005C13C0F2020314461D460FCD0FC40FCD0FC40FCD0FC495E8070084E807004AF24413C1F6FF734FF03B021A704AF22800C1F6FF70FBF70CFD00F0F2BD00F0F0BD84
:4052C0007B6A03F101031B78652B25D14AF24513C1F6FF734FF001021A704AF22802C1F6FF724AF69813C0F2020314461D460FCD0FC495E80300206004F10404218004F100
:4053000002044FEA114323704AF24413C1F6FF734FF016021A7071E07B6A03F101031B78452B20D14AF22802C1F6FF724AF6B013C0F2020314461D460FCD0FC495E8030054
:40534000206004F1040421704AF24413C1F6FF734FF014021A704AF24513C1F6FF734FF002021A704AE07B6A03F101031B78732B20D14AF24513C1F6FF734FF003021A7046
:405380004AF22802C1F6FF724AF6C813C0F2020314461D460FCD0FC495E80300206004F1040421804AF24413C1F6FF734FF015021A7023E07B6A03F101031B78642B1DD1F7
:4053C0004AF24513C1F6FF734FF000021A704AF22802C1F6FF724AF6E013C0F2020314461D460FCD0FC495E80F0007C423704AF24413C1F6FF734FF01C021A704AF2280050
:40540000C1F6FF70FBF764FC00F051BD7B6A03F101031B78412B6CD14BF21863C1F6FF739B784AF22800C1F6FF704AF60021C0F202011A4619F002F90346DAB24AF244137D
:40544000C1F6FF731A704AF22800C1F6FF70FBF73FFC7B6A03F1020207F1C40310464AF27451C0F202011A4619F010F9034687F8FE3097F9FE30012B40F01485D7F8C4303C
:40548000002BC0F20F85D7F8C430802B00F30A85D7F8C430DAB24BF21863C1F6FF739A704BF21863C1F6FF739B784AF22800C1F6FF704AF61821C0F202011A4619F0BEF886
:4054C0000346DAB24AF24413C1F6FF731A704BF21863C1F6FF739A7848F22013C1F6FF73DA754AF22800C1F6FF70FBF7F1FB00F0D9BC7B6A03F101031B78642B27D14AF299
:405500002802C1F6FF724AF62C23C0F2020314461D460FCD0FC495E80300206004F1040421804AF24413C1F6FF734FF015021A704AF22800C1F6FF70FBF7CAFB48F6053376
:40554000C1F6FF734FF001021A7000F0ABBC7B6A03F101031B78442B2CD14AF22802C1F6FF724AF64423C0F2020314461D460FCD0FC495E80300206004F10404218004F118
:4055800002044FEA114323704AF24413C1F6FF734FF016021A704AF22800C1F6FF70FBF797FB48F60533C1F6FF734FF000021A7000F078BC7B6A03F101031B78452B40F07C
:4055C000C1807B6A03F1020107F1C40207F1C40303F1040308464AF65C21C0F2020119F055F8034687F8FE307B6A03F102031B78452B0AD17B6A03F103031B78452B04D197
:405600004FF0000001F0AAF89BE097F9FE30022B77D1D7F8C830032B73DCD7F8C830002B6FDBD7F8C430DBB24C2B23D1D7F8C8304AF22800C1F6FF704AF66421C0F20201E4
:405640001A4618F0FBFF0346DAB24AF24413C1F6FF731A704AF22800C1F6FF70FBF738FBD7F8C830DBB2184600F096FF034687F8FE3065E0D7F8C430DBB2532B60D1D7F8BE
:40568000C8304AF22800C1F6FF704AF69421C0F202011A4618F0D2FF0346DAB24AF24413C1F6FF731A704AF22800C1F6FF70FBF70FFBD7F8C830DBB2184601F08BF8034675
:4056C00087F8FE3097F9FE30002B39D1D7F8C8304AF22800C1F6FF704AF6D021C0F202011A4618F0ABFF0346DAB24AF24413C1F6FF731A704AF22800C1F6FF70FBF7E8FA48
:405700001EE04AF22802C1F6FF724AF61C33C0F2020311461A464FF04903084611461A4618F0ECFD4AF24413C1F6FF734FF048021A704AF22800C1F6FF70FBF7C9FAB1E3BD
:4057400000BFAFE37B6A03F101031B78542B40F0A9837B6A03F102031B786D2B40F0A2837B6A03F1030207F1C40310464AF27451C0F202011A4618F089FF034687F8FE30A0
:4057800097F9FE30012B40F0A980D7F8C430002B2AD1D7F8C430DAB24BF21863C1F6FF7383F86C204AF22802C1F6FF724AF66833C0F2020314461D460FCD0FC42B681A4607
:4057C000228004F102044FEA134323704AF24413C1F6FF734FF012021A704AF22800C1F6FF70FBF775FA5DE3D7F8C430012B2BD14AF22802C1F6FF724AF67C33C0F2020307
:4058000014461D460FCD0FC495E80F0007C4238004F102044FEA134323704AF24413C1F6FF734FF01E021A704AF22800C1F6FF70FBF74EFAD7F8C430DAB24BF21863C1F6BE
:40584000FF7383F86C202DE3D7F8C430022B26D14AF22802C1F6FF724AF69C33C0F2020314461D460FCD0FC495E80F0084E80F004AF24413C1F6FF734FF01F021A704AF20F
:405880002800C1F6FF70FBF723FAD7F8C430DAB24BF21863C1F6FF7383F86C2002E34BF21863C1F6FF7393F86C304AF22800C1F6FF704AF6BC31C0F202011A4618F0BEFED7
:4058C0000346DAB24AF24413C1F6FF731A704AF22800C1F6FF70FBF7FBF9E3E24BF21863C1F6FF7393F86C304AF22800C1F6FF704AF6BC31C0F202011A4618F09FFE034696
:40590000DAB24AF24413C1F6FF731A704AF22800C1F6FF70FBF7DCF9C4E27B6A03F101031B78652B2BD113F015FC4BF21863C1F6FF734FF0010283F8A6204AF22802C1F60D
:40594000FF724AF6E433C0F2020314461D460FCD0FC40FCD0FC495E80300206004F1040421704AF24413C1F6FF734FF024021A704AF22800C1F6FF70FBF7AAF994E27B6ADA
:4059800003F101031B78452B2BD113F0DBFB4BF21863C1F6FF734FF0010283F8A6204AF22802C1F6FF724AF60C43C0F2020314461D460FCD0FC40FCD0FC495E803002060C4
:4059C00004F1040421704AF24413C1F6FF734FF024021A704AF22800C1F6FF70FBF778F962E27B6A03F101031B78642B2ED113F0B9FB4BF21863C1F6FF734FF0FF0283F8EC
:405A0000A6204AF22802C1F6FF724AF63443C0F2020314461D460FCD0FC495E80300206004F10404218004F102044FEA114323704AF24413C1F6FF734FF016021A704AF2A6
:405A40002800C1F6FF70FBF743F92DE27B6A03F101031B78622B40F0278213F08BFB4BF21863C1F6FF734FF0000283F8A6204AF22802C1F6FF724AF64C43C0F2020314466B
:405A80001D460FCD0FC495E80300206004F1040421804AF24413C1F6FF734FF015021A704AF22800C1F6FF70FBF712F9FCE17B6A03F101031B783F2B40F090804AF22800B8
:405AC000C1F6FF704AF66441C0F202014AF67C42C0F2020218F0B2FD0346DAB24AF24413C1F6FF731A704AF22800C1F6FF70FBF7EFF84AF22800C1F6FF704AF69841C0F2A8
:405B000002014AF6B442C0F202024AF6C043C0F2020318F093FD0346DAB24AF24413C1F6FF731A704AF22800C1F6FF70FBF7D0F84AF22800C1F6FF704AF6CC41C0F20201F9
:405B40004AF6E442C0F2020218F078FD0346DAB24AF24413C1F6FF731A704AF22800C1F6FF70FBF7B5F84AF22800C1F6FF704AF6F041C0F2020140F2837218F05FFD0346C4
:405B8000DAB24AF24413C1F6FF731A704AF22800C1F6FF70FBF79CF84BF60403C1F6FF731A684AF6DC73C1F6FF731B684AF22800C1F6FF704AF60851C0F2020118F03EFDBA
:405BC0000346DAB24AF24413C1F6FF731A704AF22800C1F6FF70FBF77BF867E17B6A03F101031B78632B47D197F82330022B3CD97B6A03F1020207F1C40310464AF6345162
:405C0000C0F202011A4618F041FD034687F8FE3097F9FE30002B40F34981D7F8C430002BC0F24481D7F8C430032B00F33F81D7F8C43087F8F43097F8F42013464FEA430343
:405C40009B184FEAC3039B1A03F00F03C7F8F030D7F8F03003F1804303F50043C7F8EC30D7F8EC0000F0BAFF20E14BF21860C1F6FF7000F0B3FF19E17B6A03F101031B78D1
:405C8000432B23D14BF21860C1F6FF7000F058FC0346C7F8DC30D7F8DC304AF22800C1F6FF704AF63851C0F202011A4618F0C6FC0346DAB24AF24413C1F6FF731A704AF2EB
:405CC0002800C1F6FF70FBF703F8EFE07B6A03F101031B78742B40F0E98014F053FFC7F8E80014F04FFF024648F61433C1F6FF731B684AF22800C1F6FF704AF65051C0F20D
:405D0000020118F09BFC0346DAB24AF24413C1F6FF731A704AF22800C1F6FF70FAF7D8FF14F030FFC7F8E400D7F8E420D7F8E830D31A03F1FF33B3F1FF3F34BF0022012297
:405D4000C2F100029B1AC7F8E030D7F8E02013464FEA83039B184FEA43034AF22800C1F6FF704AF68451C0F202011A4618F066FC0346DAB24AF24413C1F6FF731A704AF25C
:405D80002800C1F6FF70FAF7A3FF48F61033C1F6FF731D6848F60C33C1F6FF731C6814F01BFE0346184617F0A7FC034618464FF00001C4F2401117F0ABFD0346184617F0F0
:405DC0005FF802460B46CDE900234AF22800C1F6FF704AF6B451C0F202012A46234618F02DFC0346DAB24AF24413C1F6FF731A704AF22800C1F6FF70FAF76AFF4AF6D43306
:405E0000C1F6FF731B68002B20D04FF000000AF02FF80346C7F8C430D7F8C4304AF22800C1F6FF7049F6BC41C0F202011A4618F005FC0346DAB24AF24413C1F6FF731A707D
:405E40004AF22800C1F6FF70FAF742FF14F09AFE024648F61433C1F6FF731B684AF22800C1F6FF704AF65051C0F2020118F0E6FB0346DAB24AF24413C1F6FF731A704AF2F1
:405E80002800C1F6FF70FAF723FF0FE000BF0EE000BF0CE000BF0AE000BF08E000BF06E000BF04E000BF02E000BF00E000BF07F58277BD46BDE8F08F80B582B000AF4FF032
:405EC0000003FB710EF030FE03461A4649F62673C1F6FF731A8049F62673C1F6FF731B88002B00F0498149F62870C1F6FF700EF095FE49F62673C1F6FF731B881A4649F669
:405F00002873C1F6FF734FF00001995449F62873C1F6FF731B781B2B05D049F62870C1F6FF70FAF7D5FE00BF0EF046FE0346002BFAD04FF000033B604AF24213C1F6FF7328
:405F40001B88FF2B4FD849F62873C1F6FF733A689B181B780D2B46D049F62873C1F6FF733A689B181B780A2B3DD049F62873C1F6FF733A689B181B787E2B34D049F6287355
:405F8000C1F6FF733A689B181B78082B2BD049F62873C1F6FF733A689B181B787F2B22D049F62873C1F6FF733A689B181B78202B19D94AF24213C1F6FF731A88114649F601
:405FC0002873C1F6FF7338681B1818784AF22813C1F6FF73585402F101039AB24AF24213C1F6FF731A8049F62873C1F6FF733A689B181B781B2B08D049F62873C1F6FF738B
:406000003A689B181B787E2B19D14AF24213C1F6FF734FF000021A804AF22813C1F6FF734FF000021A7048F20C10C1F6FF70FAF74FFE48F21810C1F6FF70FAF749FE49F62C
:406040002873C1F6FF733A689B181B78082B08D049F62873C1F6FF733A689B181B787F2B2DD14AF24213C1F6FF731B88002B20D04AF24213C1F6FF731B8803F1FF339AB28F
:406080004AF24213C1F6FF731A804AF24213C1F6FF731B881A464AF22813C1F6FF734FF00001995448F21010C1F6FF70FAF710FE05E048F21410C1F6FF70FAF709FE49F6E3
:4060C0002873C1F6FF733A689B181B780D2B08D049F62873C1F6FF733A689B181B780A2B4AD149F62873C1F6FF733A689B181B780D2B08D049F62873C1F6FF733A689B1856
:406100001B780A2B19D14AF24213C1F6FF731B881A464AF22813C1F6FF734FF0000199544AF24213C1F6FF731B88DBB24AF22810C1F6FF701946FBF7DDFBFB7903F001030B
:40614000002B0BD148F20C10C1F6FF70FAF7C0FD48F21810C1F6FF70FAF7BAFD4AF24213C1F6FF734FF000021A804AF22813C1F6FF734FF000021A7007F10807BD4680BD77
:40618000B0B483B000AF03463960FB7148F66453C1F6FF733A681C46154628686968AA68EB680FC428696969AA69EB690FC448F68453C1F6FF73FA791A7007F10C07BD464F
:4061C000B0BC70470000000080B588B002AF786043F67153C4F21C237B614FF44043C4F2F3533B617869396917F092FB03467868194617F0CFF903467869194617F088FBD9
:40620000034618464FF40041C4F24F4117F0C2F90346184616F034FE02460B461046194619A3D3E9002316F0A9FF02460B461046194617F03BF90346FB73786816F020FE71
:4062400002460B46F97B00914AF22800C1F6FF704AF66861C0F2020118F0F0F90346DAB24AF24413C1F6FF731A704AF22800C1F6FF70FAF72DFDFB7B184607F11807BD4699
:4062800080BD00BFAFF3008000000000006A78402DE9B04388B002AF0346FB7143F67153C4F21C237B614FF44043C4F2F3533B617869396917F02CFB0346184616F0E0FD90
:4062C00004460D46786916F0DBFD80468946FB79184616F0C3FD02460B461046194626A3D3E9002316F020FE02460B46104619464FF000024FF47043C4F2890316F062FCD0
:4063000002460B464046494616F038FF02460B462046294616F056FC02460B461046194617F0E4F80346FB60FC79F86816F0A8FD02460B46CDE900234AF22800C1F6FF705B
:406340004AF69861C0F20201224618F077F90346DAB24AF24413C1F6FF731A704AF22800C1F6FF70FAF7B4FCFB68184607F11807BD46BDE8B08300BF00000000006A784075
:4063800090B587B002AF0346FB71FB79184616F065FD02460B461046194639A3D3E9002316F0C2FD02460B46104619464FF000024FF00003C4F2490316F004FC02460B4681
:4063C0001046194617F092F80346FB60F86816F057FD02460B46104619464FF000024FF48043C4F28F0316F0EDFB02460B461046194625A3D3E9002316F096FD02460B4607
:406400001046194622A3D3E9002316F0B7FE02460B46104619461CA3D3E9002316F0D2FB02460B461046194617F060F80346BB60FC79B86816F024FD02460B46CDE900234A
:406440004AF22800C1F6FF704AF6C461C0F20201224618F0F3F80346DAB24AF24413C1F6FF731A704AF22800C1F6FF70FAF730FCBB68184607F11407BD4690BDAFF3008055
:4064800000000000006A784085EB51B81E85F33F00000000001DE04080B582B000AF0346FB71FB79184617F027F90346184616F0E7FC02460B46104619460FA3D3E90023FC
:4064C00016F032FD02460B46104619464FF000024FF00003C4F2700316F050FE02460B461046194617F002F80346184607F10807BD4680BDAFF3008000000000006AF84018
:4065000080B584B000AF78604FF00003FB60786800F016F8F860FB68002B0AD17B6893F865315A2B02D14FF0010304E04FF0000301E04FF0FF33184607F11007BD4680BD6B
:4065400080B487B000AF78604FF000033B617B68FB604FF000037B6110E07B694FEA83037A68D318FB60FB681B68BB603A69BB6853403B617B6903F101037B617B6803F5AB
:40658000B472FB689A42E8D83B69184607F11C07BD4680BC704700BFB0B584B000AF0346FB71FA7913464FEA43039B184FEAC3039B1A03F00F03FB60FB6803F5B673B3F5A9
:4065C000006F1BD9FB794AF22800C1F6FF704AF60871C0F202011A4618F030F80346DAB24AF24413C1F6FF731A704AF22800C1F6FF70FAF76DFB4FF0FF33AAE0FB794FF48C
:40660000B67202FB03F24BF24403C1F6FF73D218FB6803F1804303F50043104619464FF4B67217F06BFEFB794FF4B67202FB03F24BF24403C1F6FF73D3181846FFF760FFA8
:40664000B860BB68012B39D1F9794BF21863C1F6FF734BF24402C1F6FF724FF4B67000FB01F1521819464FF4B673084611461A4617F044FE4AF22802C1F6FF724AF6607331
:40668000C0F2020314461D460FCD0FC40FCD0FC495E80300206004F1040421804AF24413C1F6FF734FF025021A704AF22800C1F6FF70FAF70DFB4FF001034AE0BB68002B80
:4066C00026D14AF22802C1F6FF724AF68873C0F2020314461D460FCD0FC40FCD0FC495E80F0007C4238004F102044FEA134323704AF24413C1F6FF734FF02E021A704AF200
:406700002800C1F6FF70FAF7E3FA4FF0000320E04AF22802C1F6FF724AF6B873C0F2020314461D460FCD0FC40FCD0FC495E8070003C422704AF24413C1F6FF734FF028022E
:406740001A704AF22800C1F6FF70FAF7C1FA4FF00203184607F11007BD46B0BD80B582B000AF0346FB7111F01FFF4BF2F450C1F6FF7015F097FA4BF2F453C1F6FF731B88C1
:406780001BB24AF22800C1F6FF704AF6E471C0F202011A4617F052FF0346DAB24AF24413C1F6FF731A704AF22800C1F6FF70FAF78FFAFB79002B05D1FB79184611F004FB1A
:4067C000034601E04FF0FF33184607F10807BD4680BD00BF90B591B002AF0346FB71FA7913464FEA43039B184FEAC3039B1A03F00F03BB624FF4B6737B634FF000033B63B0
:406800004FF00003FB6207F10C0318464FF0FF014FF0100217F020FE7A6BBB6AD318B3F5006F1BD9FB794AF22800C1F6FF704BF20401C0F202011A4617F000FF0346DAB26F
:406840004AF24413C1F6FF731A704AF22800C1F6FF70FAF73DFA4FF0FF33E3E000F088F94BF21863C1F6FF734FF05A0283F865214BF21863C1F6FF734FF00002C3F8682198
:406880004BF21860C1F6FF70FFF75AFE78624AF22800C1F6FF704AF63851C0F202017A6A17F0CCFE0346DAB24AF24413C1F6FF731A704AF22800C1F6FF70FAF709FA4BF242
:4068C0001863C1F6FF737A6AC3F86821FA794BF24403C1F6FF734FF4B67101FB02F29A184BF21863C1F6FF7311461A464FF4B673084611461A4617F001FD11F055FE4BF201
:40690000F450C1F6FF7015F0CDF94BF2F453C1F6FF731B881BB24AF22800C1F6FF704AF6E471C0F202011A4617F088FE0346DAB24AF24413C1F6FF731A704AF22800C1F60E
:40694000FF70FAF7C5F950E0FB794FF4B67202FB03F24BF24403C1F6FF73D2183B6BD3183B623B6A07F10C04186859689A68DB680FC43B6B4FEA1313DAB2BB6ADBB2D318FF
:40698000DBB207F10C021046194611F06FFAF861FB69002B1DD0FB6900934AF22800C1F6FF704BF25C01C0F202013A6BBB6A17F045FE0346DAB24AF24413C1F6FF731A7051
:4069C0004AF22800C1F6FF70FAF782F94FF0FF3328E03B6B03F110033B637B6BA3F110037B63FB6A03F10103FB627B6B002BABDC4AF22800C1F6FF704BF2B801C0F20201EB
:406A0000FA6A17F01BFE0346DAB24AF24413C1F6FF731A704AF22800C1F6FF70FAF758F94FF00103184607F13C07BD4690BD00BF80B582B000AF4FF000033B604FF00003CB
:406A40007B6075E07B68DAB24BF21863C1F6FF7379685B1803F190039B7952B21046194612F0F8FB38603B68012B21D04BF21863C1F6FF737A689B1803F190039B794AF254
:406A80002800C1F6FF704BF2E401C0F202011A467B6817F0D3FD0346DAB24AF24413C1F6FF731A704AF22800C1F6FF70FAF710F97B68D9B24BF21862C1F6FF727B6803F1D4
:406AC00038034FEA4303D318DB889BB24AB21BB21046194612F098FB38603B68012B23D04BF21862C1F6FF727B6803F138034FEA4303D318DB884AF22800C1F6FF704BF24F
:406B00002011C0F202011A467B6817F097FD0346DAB24AF24413C1F6FF731A704AF22800C1F6FF70FAF7D4F87B6803F101037B607B680F2B86DD12F005F912F015FA4BF2AB
:406B40001863C1F6FF7393F8A630012B02D112F0F9FA09E04BF21863C1F6FF7393F8A630002B01D112F006FB07F10807BD4680BD80B483B000AF4FF000037B6026E04CF62F
:406B80003833C1F6FF737A689B181A784BF21863C1F6FF7379685B1803F190039A714CF6D823C1F6FF737A6833F812104BF21862C1F6FF727B6803F138034FEA4303D31863
:406BC0000A46DA807B6803F101037B607B680F2BD5DD07F10C07BD4680BC7047B0B586B002AF78604AF22802C1F6FF724BF25813C0F2020314461D460FCD0FC40FCD0FC439
:406C000095E8070084E807004AF24413C1F6FF734FF02B021A704AF22800C1F6FF70FAF757F87B681B881A467B689B78796801F1030100914AF22800C1F6FF704BF2841141
:406C4000C0F2020117F0FAFC0346DAB24AF24413C1F6FF731A704AF22800C1F6FF70FAF737F87B6803F113027B6803F12303796801F13300796801F14301009001914AF239
:406C80002800C1F6FF704BF2B411C0F2020117F0D5FC0346DAB24AF24413C1F6FF731A704AF22800C1F6FF70FAF712F87B6893F853301A467B6893F85430796891F8551045
:406CC0000846796891F85610009001914AF22800C1F6FF704BF2DC11C0F2020117F0AEFC0346DAB24AF24413C1F6FF731A704AF22800C1F6FF70F9F7EBFF7B6893F85730C6
:406D00001A467B6893F85830796891F859100846796891F85A10009001914AF22800C1F6FF704BF2FC11C0F2020117F087FC0346DAB24AF24413C1F6FF731A704AF2280054
:406D4000C1F6FF70F9F7C4FF7B6893F85D304AF22800C1F6FF704BF22021C0F202011A4617F06CFC0346DAB24AF24413C1F6FF731A704AF22800C1F6FF70F9F7A9FF7B6893
:406D800093F86D301846FFF7FBFA0346184616F077F804460D467B6893F86E301846FFF777FA0346184616F06BF802460B46CDE900234AF22800C1F6FF704BF24C21C0F270
:406DC000020122462B4617F039FC0346DAB24AF24413C1F6FF731A704AF22800C1F6FF70F9F776FF4FF00003FB7329E0FA7BFB7B796803F138034FEA4303CB18DB88F97B84
:406E00007868411891F8961000914AF22800C1F6FF704BF28021C0F2020117F00FFC0346DAB24AF24413C1F6FF731A704AF22800C1F6FF70F9F74CFFFB7B03F10103FB736E
:406E4000FB7B0F2BD2D907F11007BD46B0BD00BFB0B58CB002AF4FF000037B6248F60633C1F6FF734FF000021A7013F0E1FE13F025FF10F0FFFE48F61033C1F6FF734FF0AE
:406E800000021A6048F60833C1F6FF734FF000021A7048F60C33C1F6FF734FF000021A6048F60733C1F6FF734FF000021A7015F06BFB15F0EDFB13F02FFD13F023FF13F06D
:406EC0006DFF48F61433C1F6FF734FF000021A6013F016FE48F66053C1F6FF731B7818464FF002010CF0A8FF4FF0640011F0B0FB00BF0DF0E3FA0346002BFAD048F660539F
:406F0000C1F6FF731B78002B02D10DF03FFD08E048F66053C1F6FF731B78012B01D110F0CBF90DF0D7FA0346002B21D00DF0C6FA0346002B1CD048F66053C1F6FF731B780A
:406F4000002B0CD100BF0DF0B9FA0346002BFAD000BF0DF031FE0346002BFAD008E048F66053C1F6FF731B78012B01D110F0A4F912F00CF910F022FF07F11E03184614F060
:406F800091FE11F011FB4BF24400C1F6FF704FF000014FF4B67217F05FFA4BF21860C1F6FF704FF000014FF4B67217F055FA4FF00000FFF7F1FA38623B6A012B06D14BF208
:406FC0001860C1F6FF70FFF709FE5EE24AF22802C1F6FF724BF2BC23C0F2020314461D460FCD0FC40FCD0FC495E8030084E803004AF24413C1F6FF734FF027021A704AF261
:407000002800C1F6FF70F9F763FE4BF21863C1F6FF734FF0000283F865214BF21863C1F6FF734FF000021A804BF21863C1F6FF734FF000029A704BF21863C1F6FF734FF086
:40704000010283F86C20AC4A4BF2E423C0F20203144607CB20606160A2601B782373A74A4BF2F423C0F2020303CB106051601B781372A34A4BF20033C0F2020303CB106028
:4070800051601B7813729F4A4BF20C33C0F2020303CB106051601B7813729B4A4BF21833C0F2020303CB106051601B78137249F6C813C0F202031A784BF21863C1F6FF7375
:4070C00083F8532049F6C813C0F202031A784BF21863C1F6FF7383F8542049F6C813C0F202031A784BF21863C1F6FF7383F8552049F6C813C0F202031A784BF21863C1F669
:40710000FF7383F8562049F6D013C0F20203DA784BF21863C1F6FF7383F8572049F6D013C0F20203DA784BF21863C1F6FF7383F8582049F6D013C0F20203DA784BF218630C
:40714000C1F6FF7383F8592049F6D013C0F20203DA784BF21863C1F6FF7383F85A204BF21863C1F6FF734FF0010283F85B204BF21863C1F6FF734FF0010283F85C204BF281
:407180001863C1F6FF734FF0800283F85D204BF21863C1F6FF734CF250321A664BF21863C1F6FF734FF0800283F86D204DF20A70C3F6A340FFF708F803461A464BF21863FB
:4071C000C1F6FF7383F86E204FF002033B620EE04BF21863C1F6FF733A6A9B1803F168034FF000025A713B6A03F101033B623B6A072BEDD94FF000033B621BE04BF2186382
:40720000C1F6FF733A6A9B1803F190034FF000029A714BF21862C1F6FF723B6A03F138034FEA4303D3184FF00002DA803B6A03F101033B623B6A072BE0D94FF008033B6292
